S00B00006C65642E73726563E4
S11300000C9434000C943E000C943E000C943E007E
S11300100C943E000C943E000C943E000C943E0064
S11300200C943E000C943E000C943E000C943E0054
S11300300C943E000C943E000C943E000C943E0044
S11300400C943E000C943E000C943E000C943E0034
S11300500C943E000C943E000C943E000C943E0024
S11300600C943E000C943E0011241FBECFEFD8E048
S1130070DEBFCDBF0E9478000C94B1000C94000048
S113008095B180E2982795B92FEF33EC99E0215090
S113009030409040E1F700C0000095B1892785B950
S11300A02FEF36E181E1215030408040E1F700C07C
S11300B0000080E090E0089595B180E2982795B91A
S11300C02FEF33ED90E3215030409040E1F700C032
S11300D0000095B1892785B92FEF36E181E12150E0
S11300E030408040E1F700C0000080E090E00895D7
S11300F0259A2D982FEF87EA91E621508040904071
S1130100E1F700C000000E945C000E9440000E94D1
S113011040002FEF87EA91E6215080409040E1F7BC
S113012000C000000E9440002FEF87EA91E62150B2
S113013080409040E1F700C000000E9440000E940F
S113014040000E945C000E945C000E945C002FEF53
S113015087EA91E6215080409040E1F700C000001A
S1090160C9CFF894FFCFA3
S9030000FC
