S0120000696E74657272757074732E73726563B2
S11300000C9434000C9446000C9446000C94460066
S11300100C9446000C9446000C9446000C94460044
S11300200C9446000C9446000C9446000C94460034
S11300300C9446000C9486000C9446000C944600E4
S11300400C9446000C9446000C9446000C94460014
S11300500C9446000C9446000C9446000C94460004
S11300600C9446000C94460011241FBECFEFD8E038
S1130070DEBFCDBF21E0A0E0B1E001C01D92A230FF
S1130080B207E1F70E946D000C940A010C94000081
S1130090FC01408121E030E002C0220F331F6A9549
S11300A0E2F7242B20830895FC01908121E030E0C5
S11300B002C0220F331F6A95E2F72095292320837B
S11300C00895FC01408121E030E002C0220F331F7B
S11300D06A95E2F724232083089565E084E290E0A2
S11300E00E94480065E085E290E00E945400E1E847
S11300F0F0E080818B7F8083808183608083EFE662
S1130100F0E08081816080837894FFCF1F920F920A
S11301100FB60F9211242F933F934F935F936F93D6
S11301207F938F939F93AF93BF93EF93FF9365E078
S113013085E290E00E94610064E085E290E00E9424
S1130140610063E085E290E00E94610062E085E284
S113015090E00E94610080910101813099F028F0C3
S1130160823029F18330C1F144C065E085E290E03A
S11301700E94540010920001809101018F5F8093CE
S1130180010137C064E085E290E00E945400809150
S11301900001811106C0809101018F5F80930101EC
S11301A028C08091010181508093010122C063E045
S11301B085E290E00E94540080910001811106C004
S11301C0809101018F5F8093010113C0809101012F
S11301D08150809301010DC062E085E290E00E94AD
S11301E0540081E08093000180910101815080934B
S11301F00101FF91EF91BF91AF919F918F917F91F9
S11302006F915F914F913F912F910F900FBE0F907F
S10B02101F901895F894FFCF2C
S9030000FC
