:100000000C943E000C9448000C9448000C9448005A
:100010000C9448000C9448000C9448000C94480040
:100020000C9448000C9448000C9448000C94480030
:100030000C9448000C9436010C9448000C94480031
:100040000C9448000C9448000C9448000C94480010
:100050000C9448000C9448000C9448000C94480000
:100060000C9448000C944800FE00030108010D01A7
:10007000120117011C01210126012B0111241FBEB1
:10008000CFEFD8E0DEBFCDBF0E94EA000C946E0136
:100090000C940000FC01408121E030E002C0220FFE
:1000A000331F6A95E2F7242B20830895FC01908189
:1000B00021E030E002C0220F331F6A95E2F720955D
:1000C000292320830895FC01408121E030E002C013
:1000D000220F331F6A95E2F7242B2083089564E0F2
:1000E0008AE290E00E944A0067E08AE290E00E9483
:1000F0004A0060E084E290E00E944A0008951F9365
:10010000CF93DF93182FD62F64E08BE290E00E940C
:10011000560067E08BE290E00E94560060E085E2C6
:1001200090E00E94560085E08A95F1F70000C8E053
:1001300010FF06C060E085E290E00E94630005C009
:1001400060E085E290E00E94560085E08A95F1F734
:10015000000067E08BE290E00E94630085E08A95F2
:10016000F1F7000067E08BE290E00E9456001695E0
:10017000C150F1F6C8E0D0FF06C060E085E290E033
:100180000E94630005C060E085E290E00E94560096
:1001900085E08A95F1F7000067E08BE290E00E942D
:1001A000630085E08A95F1F7000067E08BE290E05C
:1001B0000E945600D695C150F1F664E08BE290E0C3
:1001C0000E94630085E08A95F1F70000DF91CF91EE
:1001D0001F9108950E946F0060E28DE00E947F00F1
:1001E000C0E0D0E00AE010E00E946F00CA30D10504
:1001F000B0F5FE01EC5CFF4F0C94540160E283E02B
:100200000E947F002CC060E28FE90E947F0027C01F
:1002100060E285E20E947F0022C060E28DE00E94E1
:100220007F001DC060E289E90E947F0018C060E283
:1002300089E40E947F0013C060E281E40E947F0095
:100240000EC060E28FE10E947F0009C060E281E0A1
:100250000E947F0004C060E289E10E947F00CE011D
:100260000196B8010E944001EC01BECF1F920F928F
:100270000FB60F9211240F900FBE0F901F9018957C
:1002800097FB072E16F4009407D077FD09D00E9443
:100290005A0107FC05D03EF4909581959F4F089533
:1002A000709561957F4F0895EE0FFF1F0590F491B3
:1002B000E02D0994AA1BBB1B51E107C0AA1FBB1F5D
:1002C000A617B70710F0A61BB70B881F991F5A95E2
:1002D000A9F780959095BC01CD010895F894FFCFC2
:00000001FF
