:100000000C9434000C9451000C9451000C94510049
:100010000C9451000C9451000C9451000C9451001C
:100020000C9451000C9451000C9451000C9451000C
:100030000C9451000C946C000C9451000C945100E1
:100040000C9451000C9451000C940C010C943A0146
:100050000C9451000C9451000C9451000C945100DC
:100060000C9451000C94510011241FBECFEFD8E026
:10007000DEBFCDBF11E0A0E0B1E0E6E4F3E002C0F6
:1000800005900D92AA32B107D9F721E0AAE2B1E0BA
:1000900001C01D92AF36B207E1F70E9453000C94E5
:1000A000A1010C9400000E94DB0087E690E00E9412
:1000B0006401E1E8F0E080818A7F80838081826052
:1000C0008083EFE6F0E0808181608083789482E035
:1000D00091E00E949201FFCF1F920F920FB60F92F4
:1000E00011241F932F933F934F935F936F937F93AD
:1000F0008F939F93AF93BF93EF93FF93CF93DF9330
:1001000000D0CDB7DEB780E390E39A8389838091F6
:1001100001018230A9F0833029F1813099F5809175
:10012000000191E0980F909300018750803720F4F0
:1001300082E08093010129C087E08093000125C0FF
:1001400080910001880F0E94EA00182F0E94080188
:10015000111104C083E08093010117C081E08093F6
:10016000010113C080E291E00E949201CE0101964C
:100170000E94920186E291E00E94920181E08093C8
:10018000010103C081E0809301010F900F90DF9186
:10019000CF91FF91EF91BF91AF919F918F917F91FF
:1001A0006F915F914F913F912F911F910F900FBED3
:1001B0000F901F90189587B18F7C87B988B18063A5
:1001C00088B9E9EBF0E080818C7F808388E98093B7
:1001D000B800089594EA9093BC00ECEBF0E09081B5
:1001E0009923ECF78093BB0084E88093BC00ECEB90
:1001F000F0E080818823ECF79091B900987F9831E6
:1002000029F081E0903419F480E0089580E00895A9
:1002100084E98093BC0008951F920F920FB60F924D
:1002200011242F938F939F93EF93FF938091C0009E
:100230002091C6008C71E0912C01EF5FEF719091DD
:100240002B01E91739F0E0932C01F0E0E15DFE4F5E
:10025000208301C082E090912A01892B80932A019A
:10026000FF91EF919F918F912F910F900FBE0F9063
:100270001F9018951F920F920FB60F9211248F9313
:100280009F93EF93FF9390912E0180912D019817EA
:1002900069F0E0912D01EF5FEF71E0932D01F0E047
:1002A000E15BFE4F80818093C60005C0E1ECF0E089
:1002B00080818F7D8083FF91EF919F918F910F902F
:1002C0000FBE0F901F90189510922E0110922D01C5
:1002D00010922C0110922B0199231CF422E0209300
:1002E000C00090789093C5008093C40088E9809303
:1002F000C10086E08093C200089520912E012F5FF7
:100300002F7190912D012917E1F3E22FF0E0E15BCD
:10031000FE4F808320932E01E1ECF0E0808180622B
:1003200080830895CF93DF93EC018881882331F097
:1003300021960E947D0189918111FBCFDF91CF91A0
:060340000895F894FFCFC0
:1003460007010D0A5363616E204932432D627573AE
:1003560020666F7220646576696365733A0D0A00DC
:0A036600416464723A002F6E00003B
:00000001FF
